{
  "contractName": "RPS",
  "abi": [
    {
      "inputs": [],
      "stateMutability": "nonpayable",
      "type": "constructor"
    },
    {
      "inputs": [],
      "name": "player1",
      "outputs": [
        {
          "internalType": "address payable",
          "name": "",
          "type": "address"
        }
      ],
      "stateMutability": "view",
      "type": "function"
    },
    {
      "inputs": [],
      "name": "player1Choice",
      "outputs": [
        {
          "internalType": "string",
          "name": "",
          "type": "string"
        }
      ],
      "stateMutability": "view",
      "type": "function"
    },
    {
      "inputs": [],
      "name": "player2",
      "outputs": [
        {
          "internalType": "address payable",
          "name": "",
          "type": "address"
        }
      ],
      "stateMutability": "view",
      "type": "function"
    },
    {
      "inputs": [],
      "name": "player2Choice",
      "outputs": [
        {
          "internalType": "string",
          "name": "",
          "type": "string"
        }
      ],
      "stateMutability": "view",
      "type": "function"
    },
    {
      "inputs": [],
      "name": "getWinner",
      "outputs": [
        {
          "internalType": "uint256",
          "name": "winner",
          "type": "uint256"
        }
      ],
      "stateMutability": "view",
      "type": "function"
    },
    {
      "inputs": [
        {
          "internalType": "string",
          "name": "_choice",
          "type": "string"
        }
      ],
      "name": "playTheGame",
      "outputs": [
        {
          "internalType": "address",
          "name": "_winner",
          "type": "address"
        },
        {
          "internalType": "string",
          "name": "_equal",
          "type": "string"
        }
      ],
      "stateMutability": "nonpayable",
      "type": "function"
    },
    {
      "inputs": [],
      "name": "registerPlayTheGame",
      "outputs": [],
      "stateMutability": "nonpayable",
      "type": "function"
    },
    {
      "inputs": [],
      "name": "returnPlayer1",
      "outputs": [
        {
          "internalType": "bool",
          "name": "_b",
          "type": "bool"
        }
      ],
      "stateMutability": "view",
      "type": "function"
    },
    {
      "inputs": [],
      "name": "returnPlayer2",
      "outputs": [
        {
          "internalType": "bool",
          "name": "_b",
          "type": "bool"
        }
      ],
      "stateMutability": "view",
      "type": "function"
    }
  ],
  "bytecode": "0x608060405234801561001057600080fd5b5060008060405180807f726f636b000000000000000000000000000000000000000000000000000000008152506004019050908152602001604051809103902060405180807f726f636b0000000000000000000000000000000000000000000000000000000081525060040190509081526020016040518091039020819055506002600060405180807f726f636b000000000000000000000000000000000000000000000000000000008152506004019050908152602001604051809103902060405180807f706170657200000000000000000000000000000000000000000000000000000081525060050190509081526020016040518091039020819055506001600060405180807f726f636b000000000000000000000000000000000000000000000000000000008152506004019050908152602001604051809103902060405180807f73636973736f727300000000000000000000000000000000000000000000000081525060080190509081526020016040518091039020819055506001600060405180807f70617065720000000000000000000000000000000000000000000000000000008152506005019050908152602001604051809103902060405180807f726f636b00000000000000000000000000000000000000000000000000000000815250600401905090815260200160405180910390208190555060008060405180807f70617065720000000000000000000000000000000000000000000000000000008152506005019050908152602001604051809103902060405180807f706170657200000000000000000000000000000000000000000000000000000081525060050190509081526020016040518091039020819055506002600060405180807f70617065720000000000000000000000000000000000000000000000000000008152506005019050908152602001604051809103902060405180807f73636973736f727300000000000000000000000000000000000000000000000081525060080190509081526020016040518091039020819055506002600060405180807f73636973736f72730000000000000000000000000000000000000000000000008152506008019050908152602001604051809103902060405180807f726f636b0000000000000000000000000000000000000000000000000000000081525060040190509081526020016040518091039020819055506001600060405180807f73636973736f72730000000000000000000000000000000000000000000000008152506008019050908152602001604051809103902060405180807f7061706572000000000000000000000000000000000000000000000000000000815250600501905090815260200160405180910390208190555060008060405180807f73636973736f72730000000000000000000000000000000000000000000000008152506008019050908152602001604051809103902060405180807f73636973736f72730000000000000000000000000000000000000000000000008152506008019050908152602001604051809103902081905550610d818061049d6000396000f3fe608060405234801561001057600080fd5b50600436106100935760003560e01c80638e7ea5b2116100665780638e7ea5b2146101a95780639a4807d3146101c7578063d30895e41461032e578063d3a8b19214610378578063d8b1f2191461038257610093565b80630ce6e6801461009857806359a5f12d1461011b578063723048ca1461016557806386aa660b14610187575b600080fd5b6100a0610405565b6040518080602001828103825283818151815260200191508051906020019080838360005b838110156100e05780820151818401526020810190506100c5565b50505050905090810190601f16801561010d5780820380516001836020036101000a031916815260200191505b509250505060405180910390f35b6101236104a3565b604051808273ffffffffffffffffffffffffffffffffffffffff1673ffffffffffffffffffffffffffffffffffffffff16815260200191505060405180910390f35b61016d6104c9565b604051808215151515815260200191505060405180910390f35b61018f610521565b604051808215151515815260200191505060405180910390f35b6101b1610579565b6040518082815260200191505060405180910390f35b610280600480360360208110156101dd57600080fd5b81019080803590602001906401000000008111156101fa57600080fd5b82018360208201111561020c57600080fd5b8035906020019184600183028401116401000000008311171561022e57600080fd5b91908080601f016020809104026020016040519081016040528093929190818152602001838380828437600081840152601f19601f820116905080830192505050505050509192919290505050610662565b604051808373ffffffffffffffffffffffffffffffffffffffff1673ffffffffffffffffffffffffffffffffffffffff16815260200180602001828103825283818151815260200191508051906020019080838360005b838110156102f25780820151818401526020810190506102d7565b50505050905090810190601f16801561031f5780820380516001836020036101000a031916815260200191505b50935050505060405180910390f35b610336610989565b604051808273ffffffffffffffffffffffffffffffffffffffff1673ffffffffffffffffffffffffffffffffffffffff16815260200191505060405180910390f35b6103806109af565b005b61038a610be7565b6040518080602001828103825283818151815260200191508051906020019080838360005b838110156103ca5780820151818401526020810190506103af565b50505050905090810190601f1680156103f75780820380516001836020036101000a031916815260200191505b509250505060405180910390f35b60048054600181600116156101000203166002900480601f01602080910402602001604051908101604052809291908181526020018280546001816001161561010002031660029004801561049b5780601f106104705761010080835404028352916020019161049b565b820191906000526020600020905b81548152906001019060200180831161047e57829003601f168201915b505050505081565b600260009054906101000a900473ffffffffffffffffffffffffffffffffffffffff1681565b6000600160009054906101000a900473ffffffffffffffffffffffffffffffffffffffff1673ffffffffffffffffffffffffffffffffffffffff163373ffffffffffffffffffffffffffffffffffffffff1614905090565b6000600260009054906101000a900473ffffffffffffffffffffffffffffffffffffffff1673ffffffffffffffffffffffffffffffffffffffff163373ffffffffffffffffffffffffffffffffffffffff1614905090565b600080600360405180828054600181600116156101000203166002900480156105d95780601f106105b75761010080835404028352918201916105d9565b820191906000526020600020905b8154815290600101906020018083116105c5575b50509150509081526020016040518091039020600460405180828054600181600116156101000203166002900480156106495780601f10610627576101008083540402835291820191610649565b820191906000526020600020905b815481529060010190602001808311610635575b5050915050908152602001604051809103902054905090565b60006060600160009054906101000a900473ffffffffffffffffffffffffffffffffffffffff1673ffffffffffffffffffffffffffffffffffffffff163373ffffffffffffffffffffffffffffffffffffffff1614156106d85782600390805190602001906106d2929190610c85565b50610747565b600260009054906101000a900473ffffffffffffffffffffffffffffffffffffffff1673ffffffffffffffffffffffffffffffffffffffff163373ffffffffffffffffffffffffffffffffffffffff161415610746578260049080519060200190610744929190610c85565b505b5b600060038054600181600116156101000203166002900490501415801561078557506000600480546001816001161561010002031660029004905014155b1561091657600080600360405180828054600181600116156101000203166002900480156107ea5780601f106107c85761010080835404028352918201916107ea565b820191906000526020600020905b8154815290600101906020018083116107d6575b505091505090815260200160405180910390206004604051808280546001816001161561010002031660029004801561085a5780601f1061083857610100808354040283529182019161085a565b820191906000526020600020905b815481529060010190602001808311610846575b5050915050908152602001604051809103902054905060018114156108a357600160009054906101000a900473ffffffffffffffffffffffffffffffffffffffff169250610910565b60028114156108d657600260009054906101000a900473ffffffffffffffffffffffffffffffffffffffff16925061090f565b6040518060400160405280600581526020017f457175616c00000000000000000000000000000000000000000000000000000081525091505b5b50610984565b6040517f08c379a00000000000000000000000000000000000000000000000000000000081526004018080602001828103825260108152602001807f6d616b6520796f75722063686f6963650000000000000000000000000000000081525060200191505060405180910390fd5b915091565b600160009054906101000a900473ffffffffffffffffffffffffffffffffffffffff1681565b600160009054906101000a900473ffffffffffffffffffffffffffffffffffffffff1673ffffffffffffffffffffffffffffffffffffffff163373ffffffffffffffffffffffffffffffffffffffff161480610a585750600260009054906101000a900473ffffffffffffffffffffffffffffffffffffffff1673ffffffffffffffffffffffffffffffffffffffff163373ffffffffffffffffffffffffffffffffffffffff16145b15610aae576040517f08c379a0000000000000000000000000000000000000000000000000000000008152600401808060200182810382526021815260200180610d2b6021913960400191505060405180910390fd5b600073ffffffffffffffffffffffffffffffffffffffff16600160009054906101000a900473ffffffffffffffffffffffffffffffffffffffff1673ffffffffffffffffffffffffffffffffffffffff161415610b4b5733600160006101000a81548173ffffffffffffffffffffffffffffffffffffffff021916908373ffffffffffffffffffffffffffffffffffffffff160217905550610be5565b600073ffffffffffffffffffffffffffffffffffffffff16600260009054906101000a900473ffffffffffffffffffffffffffffffffffffffff1673ffffffffffffffffffffffffffffffffffffffff161415610be45733600260006101000a81548173ffffffffffffffffffffffffffffffffffffffff021916908373ffffffffffffffffffffffffffffffffffffffff1602179055505b5b565b60038054600181600116156101000203166002900480601f016020809104026020016040519081016040528092919081815260200182805460018160011615610100020316600290048015610c7d5780601f10610c5257610100808354040283529160200191610c7d565b820191906000526020600020905b815481529060010190602001808311610c6057829003601f168201915b505050505081565b828054600181600116156101000203166002900490600052602060002090601f016020900481019282601f10610cc657805160ff1916838001178555610cf4565b82800160010185558215610cf4579182015b82811115610cf3578251825591602001919060010190610cd8565b5b509050610d019190610d05565b5090565b610d2791905b80821115610d23576000816000905550600101610d0b565b5090565b9056fe4e6565642074686520646966666572656e7420706c617965722061646472657373a26469706673582212205daae3e94add375aff315670af4c06733ec89740fe53c631bc6c6d5fe6939ef864736f6c63430006070033",
  "immutableReferences": {},
  "source": "pragma solidity 0.6.7;\n\ncontract RPS\n{\n\tmapping(string=>mapping(string=>uint)) symbols;\n\taddress payable public player1;\n\taddress payable public player2;\n\tstring public player1Choice;\n\tstring public player2Choice;\n\n\tmodifier notRegisteredYet() \n\t{\n\t\tif(msg.sender == player1 || msg.sender == player2)\n\t\t{\n\t\t\trevert(\"Need the different player address\");\n\t\t}\n\t\telse\n\t\t{\n\t\t\t_;\n\t\t}\n\t}\n\n\tconstructor() public \n\t{\n\t\tsymbols[\"rock\"][\"rock\"] = 0;\n\t\tsymbols[\"rock\"][\"paper\"] = 2;\n\t\tsymbols[\"rock\"][\"scissors\"] = 1;\n\t\tsymbols[\"paper\"][\"rock\"] = 1;\n\t\tsymbols[\"paper\"][\"paper\"] = 0;\n\t\tsymbols[\"paper\"][\"scissors\"] = 2;\n\t\tsymbols[\"scissors\"][\"rock\"] = 2;\n\t\tsymbols[\"scissors\"][\"paper\"] = 1;\n\t\tsymbols[\"scissors\"][\"scissors\"] = 0;\n\t}\n\n\tfunction getWinner() public view returns(uint winner)\n\t{\n\t\treturn symbols[player1Choice][player2Choice];\n\t} \n\n\tfunction playTheGame(string memory _choice) public returns(address _winner,string memory _equal)\n\t{\n\t\tif(msg.sender== player1)\n\t\t{\n\t\t\tplayer1Choice = _choice;\n\t\t}\n\t\telse if(msg.sender == player2)\n\t\t{\n\t\t\tplayer2Choice = _choice;\n\t\t}\n\t\tif(bytes(player1Choice).length != 0 && bytes(player2Choice).length != 0)\n\t\t{\n\t\t\tuint winner = symbols[player1Choice][player2Choice];\n\t\t\tif(winner == 1)\n\t\t\t{\n\t\t\t\t_winner = player1;\n\t\t\t}\n\t\t\telse if(winner == 2)\n\t\t\t{\n\t\t\t\t_winner = player2;\n\t\t\t}\n\t\t\telse\n\t\t\t{\n               _equal = \"Equal\";\n\t\t\t}\n\t\t}\n\t\telse\n\t\t{\n\t\t\trevert(\"make your choice\");\n\t\t}\n\n\t}\n\n\tfunction registerPlayTheGame() public notRegisteredYet()\n\t{\n\t\tif(player1 == address(0))\n\t\t{\n\t\t\tplayer1 = msg.sender;\n\t\t}\n\t\telse if(player2 == address(0))\n\t\t{\n\t\t\tplayer2 = msg.sender;\n\t\t}\n\t}\n\n\tfunction returnPlayer1() public view returns(bool _b)\n\t{\n\t\treturn msg.sender == player1;\n\t}\n\n\tfunction returnPlayer2() public view returns(bool _b)\n\t{\n\t\treturn msg.sender == player2;\n\t}\n\n}",
  "sourcePath": "/home/kheng/Desktop/Rock_Paper_Scissor_game/contracts/RPS.sol",
  "compiler": {
    "name": "solc",
    "version": "0.6.7+commit.b8d736ae.Emscripten.clang"
  },
  "schemaVersion": "3.2.0",
  "updatedAt": "2020-06-11T03:07:30.673Z",
  "devdoc": {
    "methods": {}
  },
  "userdoc": {
    "methods": {}
  }
}